S01900004172647553656E736F722053656E736F722E737265636B
S113000019C033C032C031C030C02FC0A7C12DC009
S11300102CC02BC02AC029C028C027C026C025C098
S113002024C023C0A5C1D2C120C01FC01EC01DC092
S11300301CC01BC011241FBECFEFD2E0DEBFCDBF5A
S113004011E0A0E0B1E0E2E3FAE002C005900D9215
S1130050A631B107D9F721E0A6E1B1E001C01D92B4
S1130060AE3EB207E1F725D0E2C4CACF10928500B4
S1130070109284005698559A81E0809381005D9A8D
S1130080B09800B605FEFDCFB099FBCF1092810069
S11300905D98569A5E988AE08A95F1F700C0B09907
S11300A005C0809184009091850008958FEF9FEFA3
S11300B0089585B5816085BD3D9A80B78F7780BFEF
S11300C08FEF80937F00F89414BE88E10FB6F89404
S11300D080936000109260000FBE529A5A9A7894EE
S11300E087E690E09DD10F2EF8E12F2EF02D0F2EF4
S11300F0FCE7CF2ED12CF02D0F2EF0EC5F2EF02D3F
S11301000AE710E00F2EF7EC6F2EF02D0F2EF8E714
S1130110EF2EF12CF02D0F2EF8EC3F2EF02D0F2E9C
S1130120F1EC4F2EF02D0F2EF4E08F2EF1E09F2EE8
S1130130F02D0F2EFEEAAF2EF1E0BF2EF02DC0E61B
S1130140D0E00F2EF1E77F2EF02D209102013091A7
S1130150030180910001909101012817390708F4E7
S1130160DFC00FB6F89420926000109260000FBEBA
S113017045985A988FE79EE30197F1F700C0000075
S1130180F6015082F80160828FED9EE20197F1F74B
S113019000C00000F7018081918190932801809331
S11301A02701F6015082F80160828FED9EE20197EB
S11301B0F1F700C00000F70180819181909328013C
S11301C080932701F6013082F80160828FED9EE270
S11301D00197F1F700C00000F701808191819093AD
S11301E0260180932501F6014082F80160828FED9B
S11301F09EE20197F1F700C00000F7018081918130
S11302009093240180932301F80180818F77808368
S11302102DDF90931F0180931E0128DF90931D0111
S113022080931C0123DF90931B0180931A011EDF2E
S1130230909319018093180119DF9093170180930B
S1130240160140911C0150911D0120911E01309115
S11302501F01240F351F40911A0150911B01240FD7
S1130260351F4091180150911901240F351F280F93
S1130270391FADECBCEC10D1969587959695879572
S113028090932201809321015A9A809120011F9218
S11302908F93809122018F93809121018F9380917C
S11302A024018F93809123018F93809128018F9350
S11302B0809127018F93809126018F93809125014E
S11302C08F939F928F92BF92AF92F2D0FAE0FA95F9
S11302D0F1F700C02FEF8FE493EC21508040904061
S11302E0E1F700C00000C501C9D0809120018F5FF3
S11302F080932001EFEFF3ED20E3E150F040204044
S1130300E1F700C000001092030110920201459A27
S11303108DB79EB70E960FB6F8949EBF0FBE8DBFD5
S113032080910201909103010196909303018093BF
S11303300201F8948881806188837882788283B707
S1130340817F846083BF83B7816083BF85B7806604
S113035085BF8F7D85BF78948895F7CE1F920F92C5
S11303600FB60F9211240F900FBE0F901F90189587
S11303701F920F920FB60F9211242F938F939F9376
S1130380EF93FF938091C0002091C6008871E091A3
S11303902B01EF5FEF7390912A01E91739F0E09395
S11303A02B01F0E0E25DFE4F208301C082E09091DA
S11303B02901892B80932901FF91EF919F918F91BE
S11303C02F910F900FBE0F901F9018951F920F92B0
S11303D00FB60F9211248F939F93EF93FF939091F5
S11303E02D0180912C01981769F0E0912C01EF5FA9
S11303F0EF73E0932C01F0E0E259FE4F808180938B
S1130400C60005C0E1ECF0E080818F7D8083FF9120
S1130410EF919F918F910F900FBE0F901F901895A1
S113042010922D0110922C0110922B0110922A018E
S1130430992324F422E02093C0009F779093C50071
S11304408093C40088E98093C10086E08093C20051
S1130450089520912D012F5F2F7390912C0129175E
S1130460E1F3E22FF0E0E259FE4F808320932D0167
S1130470E1ECF0E08081806280830895CF93DF9384
S1130480EC018881882329F02196E3DF8991811189
S1130490FCCFDF91CF910895A29FB001B39FC0011B
S11304A0A39F01D0B29F700D811D1124911D089549
S11304B0AEE0B0E0EDE5F2E091C20D891E8986E080
S11304C08C831A8309838FEF9FE79E838D83AE010C
S11304D0475E5F4F6F89788DCE01019608D0EF811A
S11304E0F885E00FF11F10822E96E4E093C2ACE091
S11304F0B0E0ECE7F2E064C27C016B018A01FC012C
S113050017821682838181FFB0C1CE0101964C010E
S1130510F7019381F60193FD859193FF81916F011A
S1130520882309F49EC1853239F493FD859193FFA4
S113053081916F01853221F4B70190E0B1D1E8CF08
S1130540512C312C20E02032A0F48B3269F030F4AD
S1130550803259F0833269F420612CC08D3239F035
S1130560803339F4216026C02260246023C02860CF
S113057021C027FD27C030ED380F3A3078F426FF2C
S113058006C0FAE05F9E300D1124532E13C08AE09A
S1130590389E300D1124332E20620CC08E3221F48B
S11305A026FD5FC1206406C08C3611F4206802C0A9
S11305B0883641F4F60193FD859193FF81916F0193
S11305C08111C1CF982F9F7D9554933028F40C5FEF
S11305D01F4FFFE3F9830DC0833631F0833771F089
S11305E0833509F057C021C0F801808189830E5FEB
S11305F01F4F44244394512C540114C03801F2E099
S11306006F0E711CF801A080B18026FF03C0652D18
S113061070E002C06FEF7FEFC5012C8736D12C014B
S113062083012C852F77222E16C03801F2E06F0E3D
S1130630711CF801A080B18026FF03C0652D70E015
S113064002C06FEF7FEFC5012C8714D12C012C85DC
S11306502068222E830123FC19C0832D90E04816C4
S11306605906A0F4B70180E290E01AD13A94F5CF8C
S1130670F50127FC859127FE81915F01B70190E088
S11306800FD131103A94F1E04F1A5108411451043A
S113069079F7DEC0843611F0893631F5F80127FF89
S11306A007C060817181828193810C5F1F4F08C0F4
S11306B060817181882777FD8095982F0E5F1F4F89
S11306C02F76B22E97FF09C090958095709561950D
S11306D07F4F8F4F9F4F2068B22E2AE030E0A40155
S11306E011D1A82EA81843C0853729F42F7EB22E25
S11306F02AE030E025C0F22FF97FBF2E8F36C1F0FB
S113070018F4883579F0ADC0803719F0883721F0B6
S1130710A8C02F2F2061B22EB4FE0DC08B2D846093
S1130720B82E09C024FF0AC09F2F9660B92E06C0B8
S113073028E030E005C020E130E002C020E132E0F2
S1130740F801B7FE07C060817181828193810C5FDB
S11307501F4F06C06081718180E090E00E5F1F4FE3
S1130760A401D0D0A82EA818FB2DFF77BF2EB6FE6B
S11307700BC02B2D2E7FA51450F4B4FE0AC0B2FC7E
S113078008C02B2D2E7E05C07A2C2B2D03C07A2C6D
S113079001C0752C24FF0DC0FE01EA0DF11D8081FE
S11307A0803311F4297E09C022FF06C07394739428
S11307B004C0822F867809F0739423FD12C020FFB1
S11307C006C05A2C731418F4530C5718732C731452
S11307D060F4B70180E290E02C8762D073942C859A
S11307E0F6CF731410F4371801C0312C24FF11C054
S11307F0B70180E390E02C8753D02C8522FF16C0EC
S113080021FF03C088E590E002C088E790E0B701CB
S11308100CC0822F867851F021FD02C080E201C015
S11308208BE227FD8DE2B70190E03AD0A51430F4B5
S1130830B70180E390E034D05A94F8CFAA94F4013D
S1130840EA0DF11D8081B70190E02AD0A110F6CF06
S1130850332009F45DCEB70180E290E021D03A94D0
S1130860F7CFF7018681978102C08FEF9FEF2C9617
S1130870E2E1C2C0FC010590615070400110D8F75C
S1130880809590958E0F9F1F0895FC0161507040D4
S113089001900110D8F7809590958E0F9F1F0895B1
S11308A00F931F93CF93DF93182F092FEB018B81A5
S11308B081FD03C08FEF9FEF20C082FF10C04E81E7
S11308C05F812C813D81421753077CF4E881F981D3
S11308D09F012F5F3F4F39832883108306C0E8852B
S11308E0F985812F0995892B29F72E813F812F5F67
S11308F03F4F3F832E83812F902FDF91CF911F9104
S11309000F910895FA01AA27283051F1203181F17D
S1130910E8946F936E7F6E5F7F4F8F4F9F4FAF4F03
S1130920B1E03ED0B4E03CD0670F781F891F9A1F16
S1130930A11D680F791F8A1F911DA11D6A0F711DCA
S1130940811D911DA11D20D009F468943F912AE0D6
S1130950269F11243019305D3193DEF6CF010895BE
S1130960462F4770405D4193B3E00FD0C9F7F6CFEF
S1130970462F4F70405D4A3318F0495D31FD4052B7
S1130980419302D0A9F7EACFB4E0A695979587954D
S113099077956795BA95C9F700976105710508952C
S11309A09B01AC010A2E06945795479537952795D8
S11309B0BA95C9F7620F731F841F951FA01D089570
S11309C02F923F924F925F926F927F928F929F925B
S11309D0AF92BF92CF92DF92EF92FF920F931F9349
S11309E0CF93DF93CDB7DEB7CA1BDB0B0FB6F894FA
S11309F0DEBF0FBECDBF09942A88398848885F843A
S1130A006E847D848C849B84AA84B984C884DF80AA
S1130A10EE80FD800C811B81AA81B981CE0FD11D8E
S1130A200FB6F894DEBF0FBECDBFED010895F89464
S1050A30FFCFF2
S1130A3200FA60EA3C25643B25643B25643B25645B
S1090A423B25643E0000A8
S9030000FC
